:020000040800F2
:1000000050080020750100087D010008C90800089B
:100010004F0A0008DD06000801110008000000007A
:100020000000000000000000000000008701000840
:1000300089010008000000008B010008B50D0008D0
:100040008F0100088F0100088F0100088F01000850
:100050008F0100088F0100088F0100088F01000840
:100060008F0100088F0100088F0100088F01000830
:100070008F0100088F0100088F0100088F01000820
:100080008F0100088F01000800000000150E000815
:100090008F0100088F0100088F0100088F01000800
:1000A0008F0100088F0100088F0100088F010008F0
:1000B0008F010008000000008F0100080000000010
:1000C0008F010008000000008F0100088F01000868
:1000D0008F0100088F0100088F0100080000000058
:1000E00000000000000000008F0100080000000078
:1000F0000000000000000000000000000000000000
:100100008F01000800000000000000008F010008BF
:1001100000000000000000000000000000000000DF
:1001200000000000000000000000000000000000CF
:1001300000000000000000000000000000000000BF
:1001400000000000000000000000000000000000AF
:1001500000000000000000000000DFF814D000F0F4
:10016000DDF900F02BF80000004800479D2F000843
:10017000500800200648804706480047FEE7FEE793
:10018000FEE7FEE7FEE7FEE7FEE7FEE7FEE7FEE747
:10019000B90D00085B010008D2B201E000F8012BA4
:1001A000491EFBD270470022F6E710B513460A46F7
:1001B00004461946FFF7F0FF204610BD70B5054C08
:1001C000054D03E0206820448047241DAC42F9D14E
:1001D00070BD0000F83E0008FC3E0008F0B480EA64
:1001E0000102D40F4200B2EB410F02D20246084690
:1001F00011464A0042D0C30DDDB2C1F3C752AD1A59
:10020000202D35DAC1F3160141F4000204B1524247
:10021000C5F1200602FA06F12A411044B3EBD05F83
:1002200023D0C4B1012DA0EBC35009DCF0BC4FF0CA
:10023000004202EAC352DBB200F5000000F0FBB856
:10024000400000F1807000EBC350A0F1807040EAE4
:10025000D170490009E0490841EAC071A0EBC350E0
:1002600000F50000400800EBC350F0BC00F0DAB825
:100270006142012202EB4101001BF6E7F0BC70472E
:1002800081F00041AAE780F00040A7E780EA010280
:1002900010B502F00043400022D04A001FD0010EEA
:1002A00001EB1261C0F35600C2F3560240F40000A5
:1002B00042F40002A0FB022000047F39140400D0A5
:1002C000401C50EA124001D44000491EC2B20C0644
:1002D00004EBD010401C4008802A02D003E000202C
:1002E00010BD20F00100002900DA0020184310BDE5
:1002F00030B480EA010202F0004530F0004221F003
:10030000004013D090B1C30DD40DC2F31601C0F359
:100310001600E41A41F4000140F400027D349142D9
:1003200001D3641C00E04900002C02DA30BC00203C
:1003300070474FF400000023914201D3891A034310
:1003400040084FEA4101F7D151B1914202D14FF03B
:10035000004105E002D24FF0010101E06FF0010120
:1003600003EBC450284430BC00F05CB8420005D018
:10037000C0F3C7525242914201DC0020704700EBAB
:10038000C1507047C10F80EAE0700844CA07962345
:10039000002100F050B896230022114600F04BB81F
:1003A00000F0004220F00040C10DC0F3160040F400
:1003B00000007F2901DA00207047962903DCC1F193
:1003C0009601C84001E096398840002AF4D04042A6
:1003D000704720F00040C10DC0F3160040F400004B
:1003E0007F2901DA00207047962903DCC1F19601CC
:1003F000C84070479639884070470000002801DBEC
:10040000C0F10040002901DBC1F100418142704789
:10041000002801DBC0F10040002901DBC1F10041EF
:10042000884270470029A8BF7047401C490008BF98
:1004300020F00100704710B4B0FA80FC00FA0CF014
:1004400050EA010404BF10BC704749B1CCF120044C
:1004500021FA04F411FA0CF118BF012121430843D9
:10046000A3EB0C01CB1D4FEA00614FEA102042BF05
:10047000002010BC704700EBC35010440029A4BFFB
:1004800010BC7047401C490008BF20F0010010BCA0
:10049000704710B541000CD0C0F3C751962908DC55
:1004A0007E2909DC06DB410204D000F0004040F068
:1004B0007E5010BD002010BDC1F19604C4F1200192
:1004C00000FA01F1E040FFF7ADFFA04010BD10B50C
:1004D00000F0004420F00040C20DC0F3160040F4CC
:1004E00000007F2A07DA7D2A00DA7D22763A00FAB8
:1004F00002F1002008E0962A09DCA2F1760100FA58
:1005000001F1C2F19602D040FFF78CFF01E0963A6C
:100510009040002C00D0404210BD0000064C074D1A
:1005200006E0E06840F0010394E8070098471034C3
:10053000AC42F6D3FFF715FED83E0008F83E00089F
:1005400070B58C1810F8015B15F0070301D110F895
:10055000013B2A1106D110F8012B03E010F8016BC2
:1005600001F8016B5B1EF9D12B0705D40023521E45
:100570000DD401F8013BFAE710F8013BCB1A921CAD
:1005800003E013F8015B01F8015B521EF9D5A142AB
:10059000D8D3002070BD00000748016841F0080171
:1005A000016001680907FCD4016841F004010160A1
:1005B00001684907FCD47047082401400549002818
:1005C000086802D040F4807001E020F48070086078
:1005D000704700000824014005490028086802D03F
:1005E00040F0010001E020F00100086070470000C9
:1005F00008240140104A10B51168037B21F4807172
:1006000041EA03211160131D19680C4A0468114066
:1006100082682243447B41EA44010A431A60064A45
:1006200028321168007921F47001401EC0B241EAFD
:100630000050106010BD000004240140FDF7F1FFE0
:1006400070B50725092806D9154E3468A0F10A03AC
:1006500003EB430304E0124E361D346800EB400305
:100660009D40AC439A40144334601F22072904D2B2
:100670000B4C28342368491E0AE00D2904D2084C8B
:1006800024342368C91F03E0054C203423680D3946
:1006900001EB81018A40934388400343236070BD8E
:1006A0000C24014005490028086802D040F4A0004D
:1006B00001E020F4A0000860704700000824014019
:1006C00005490028086802D040F4000001E020F449
:1006D000000008607047000008240140052001F078
:1006E00083FC0029016802D041F0010102E04FF6CD
:1006F000FE7211400160704730B5026847F6F07332
:100700009A430C6A8B682343D1E904452C43234365
:100710008C692343CC6923434C6A23438C6A23436B
:1007200013430360CA6842600A6882604968C16016
:1007300030BD00000149C860704700000020024041
:1007400070B505464FF47026304600F05DF800287D
:1007500010D1094C206940F00200206165612069D8
:1007600040F040002061304600F04EF8216921F051
:100770000201216170BD00000020024008490020F4
:10078000CA68D20701D001207047CA68D20601D5D5
:1007900002207047C9684907FBD503207047000055
:1007A000002002400248016941F080010161704768
:1007B00000200240F0B506464FF470270D4638463B
:1007C00000F022F800280CD1064C206940F001000E
:1007D00020613560384600F017F8216921F00101E9
:1007E0002161F0BD0020024004480169090603D5DB
:1007F0000349416003494160704700000020024006
:1008000023016745AB89EFCD00B50346FFF7B6FF7F
:100810005B1E012802D1002BF8D1042000BDF0B5E9
:100820000022012703260B6807FA02F52B422DD080
:100830000B79012B01D0022B13D18468530006FAE7
:1008400003FC24EA0C0484604C799C4083681C43BC
:1008500084608388AB43838084888B7993401C4376
:100860008480C568530006FA03F4A543C560CD79BA
:10087000D0F80CC09D4045EA0C05C5600568A5434D
:1008800005600C799C4003681C430460521C102ACC
:10089000C9D3F0BD4B07DB0E9A40C90810B500EB79
:1008A0008100016A0F249C40A1430162016A114347
:1008B000016210BD008A084000D0012070470AB1D3
:1008C0008161704701857047052001F08DFB00298B
:1008D000018802D041F4806101E021F4806101804F
:1008E00070470029018802D041F0010101E021F0A8
:1008F0000101018070470CB50090080F019021F0B4
:100900007F40019911B10099143102E00099000C67
:10091000183100910968014201D001200CBD00206E
:100920000CBD000070B50446008888B00D4620F06C
:1009300001002080A08820F03F06684600F038F9CA
:1009400027480299B1FBF0F080B23F2800D93F2040
:100950000643A680234B6A689A421DD85200B1FB19
:10096000F2F189B2042900D20421A1833F2801D3E6
:100970003F2000E0401C2084A18320884FF6F53101
:100980000840298840F480600143218028896989D2
:100990000843208108B070BD6B88A3F53F46FF3E39
:1009A0000BD002EBC20303EB0212B1FBF2F189B2EE
:1009B00041F48042110506D007E002EB4202B1FB90
:1009C000F2F18AB2F6E742F0010242F400414FF43C
:1009D000967250434FF47A72B0FBF2F0CAE700000F
:1009E00040420F00A0860100B1F5006F018803D0DE
:1009F00021F400610180704741F40061FAE7008A48
:100A0000C0B27047018270470029018802D041F4CA
:100A1000807101E021F480710180704710B5838AF4
:100A20000022048B43EA044323F07F43994302D11D
:100A3000818A0122008B104610BD0029018802D056
:100A400041F4007101E021F400710180704705203C
:100A500001F0CAFA70B504464FF07F554FF0FF31F0
:100A6000FFF784FC06461048A0EB6404214630469C
:100A7000FFF70CFC2146FFF709FC2946FFF703FCB2
:100A80002146FFF703FC044601463046FFF7FEFB14
:100A90002146FFF7FBFB2946FFF7F5FB2146BDE8A2
:100AA0007040FFF7F3BB0000DF59375F08494A6821
:100AB00022F440424A604A6883B21A434A600A6B91
:100AC00022F480720A630A6B42EA1040086370479E
:100AD00000100240034A516821F0F00101435160C7
:100AE0007047000000100240044A0029516901D0FB
:100AF000014300E081435161704700000010024053
:100B0000034A516821F4E0610143516070470000DD
:100B100000100240044A0029D16901D0014300E0DD
:100B20008143D1617047000000100240034A5168C0
:100B300021F46051014351607047000000100240F1
:100B4000044A0029916901D0014300E08143916189
:100B50007047000000100240034A516821F0030171
:100B60000143516070470000001002400B4A4109E8
:100B70000CD001290CD002290CD0516B00F01F00C1
:100B8000012282400A4207D0012070471168F5E730
:100B9000116AF3E7516AF1E7002070470010024044
:100BA0000248406800F00C0070470000001002404E
:100BB000F0B53F4C61683F4B11F00C0103D00429A4
:100BC00001D0082901D0036017E0616801F47012B8
:100BD0006168012505EAD161C1EB011101EB924188
:100BE0006268891C12F4803F26D0E26A02F00F028C
:100BF000521CB3FBF2F24A43026061680F2202EA20
:100C000011112D4A525C01680D46D1404160626865
:100C10000727294E07EA1222083EB25C21FA02F2A7
:100C20008260626807EAD222B25CD140C160226B66
:100C3000D20505D4214A17E0214A51430160DCE77F
:100C40006268C2F3813232B1012A06D0022A06D08C
:100C5000032A0AD107E04A0806E08A0804E00622CF
:100C6000B1FBF2F200E0CA080261226B4FF40046C9
:100C7000520603D448F21202426100E04661226B40
:100C800092070FD0216B01F0030101290CD0216BD9
:100C900001F00301022909D0216BC943890700D162
:100CA0008361F0BD8161F0BD8561F0BD8661F0BDFD
:100CB0000010024000127A0008000020809FD5003A
:100CC00000093D00024900228A70887070470000C8
:100CD0000010024005490028086802D040F00100D9
:100CE00001E020F0010008607047000000100240A1
:100CF000054A10B55368054C2340536053680843B8
:100D00000343536010BD000000100240FFFFC2F714
:100D100005490028086802D040F0807001E020F00A
:100D20008070086070470000001002400CB500227F
:100D30001E4800920192016841F480310160C314A1
:100D4000016801F4003101910099491C0091019959
:100D500011B900999942F3D10168890324D5012181
:100D6000019141684160416841604168416041686A
:100D70000F4A11404160416841F4E8114160016847
:100D800041F08071016001688901FCD5416821F062
:100D900003014160416841F0020141604168C1F3D3
:100DA00081010229FAD10CBD01920CBD0010024054
:100DB000FFFFC0F7704700001248016841F00101D1
:100DC00001604168104A1140416001680F4A1140BA
:100DD0000160016821F48021016041680C4A1140E2
:100DE0004160C16A21F00F01C162016B40F2431200
:100DF00091430163416B21F0010141630021816056
:100E0000FFF794BF001002400C003F08FFFFF6FE02
:100E1000FFFFC0F710B5002201210B48FFF74FFD7F
:100E2000002204214FF09040FFF749FD074C0121BB
:100E3000204600F051F80021204600F05BF80449FC
:100E40000020486010BD0000000400480020004061
:100E5000D401002010B50288144CA04205D0B0F196
:100E6000804F02D0124B984203D122F070034A887F
:100E70001A43104B984203D022F440730A891A4354
:100E800002804A68C2620A880285A04208D00A4AE3
:100E9000904205D0094A904202D0094A904201D1BD
:100EA000897A01860121818210BD0000002C014059
:100EB0000004004000100040004001400044014098
:100EC000004801400029018802D041F0800101E082
:100ED00021F0800101807047C943018270470029D9
:100EE00030F8441F02D041F4004101E0C1F30E018B
:100EF000018070470029018802D041F0010101E022
:100F000021F001010180704730B5028C22F001020E
:100F10000284028C8388048B22F0020224F0730581
:100F20000C882C438D8915434A882A430F4DA842CB
:100F300008D00F4DA84205D00E4DA84202D00E4D4C
:100F4000A8420DD122F00805CA8923F440732A4330
:100F500022F004058A882A430D8A1D434B8A2B43BD
:100F60008380048389684163028430BD002C014082
:100F7000004001400044014000480140028B22F043
:100F800008020A430283704770B5028C22F01002F7
:100F90000284028C8388048B0D8824F4E6464FF685
:100FA000FF7404EA052535438E8922F0200204EA05
:100FB000061616434A8804EA021232430F4EB04224
:100FC00015D122F08006CA8923F4406304EA021294
:100FD000324322F040068A8804EA021232430E8A23
:100FE00004EA86061E434B8A04EA83033343838064
:100FF000058389688163028470BD0000002C014074
:10100000028B4FF6FF7322F4006203EA01211143C1
:101010000183704770B5028C22F480720284028CC6
:101020008388848B0D8824F0730425438E894FF6C2
:10103000FF7422F4007204EA062616434A8804EA82
:10104000022232430F4EB04215D122F40066CA8903
:1010500023F4405304EA0222324322F480668A8851
:1010600004EA022232430E8A04EA06161E434B8A21
:1010700004EA03133343838085838968C163028450
:1010800070BD0000002C0140828B22F008020A4350
:101090008283704770B5028C22F480520284058CE2
:1010A0008288838B0C8823F4E6464FF6FF7303EAAD
:1010B0000424344325F400568D8903EA053535436D
:1010C0004E8803EA06362E43074DA84205D122F486
:1010D00080450A8A03EA82122A43828084838968CF
:1010E0000164068470BD0000002C0140828B4FF625
:1010F000FF7322F4006203EA0121114381837047E8
:10110000052000F071FF4100080218BF04200A0EFC
:1011100018BF40F001004FF07F4232EA010108BFE2
:1011200040F00200012808BF052070470121FFF7A9
:101130001DB961214FF0E040FFF718B96FF05E0173
:101140000807FFF713B902E008C8121F08C1002AF8
:10115000FAD170477047002001E001C1121F002A38
:10116000FBD170470149086070470000E80100208A
:101170000148002101607047DC0000202DE9F05F8C
:10118000194E4FF08A4A00254FF4487BA6F1180704
:10119000DFF858804FF4FA79C6F808A002F0C6FBD1
:1011A000584600F060FE002406EB840057F8241037
:1011B000424601F075FE641C032CF5DB01F040F99A
:1011C0006D1C4D45EADB5146B068FFF759F8084DF4
:1011D0000024B06006EB8400294601F09BFD641CEE
:1011E000032CF7DBBDE8F09F300300201F856B3F29
:1011F0000000FA432DE9F0410025384E92B02F4609
:101200004FF0030805EB450006EBC0040FA960781A
:101210008DF840800F908DF843706068FFF7FFFAFB
:10122000D4E90310FFF764F86D1C6061022DE9DB5F
:1012300001214802FFF784FC2948FFF737FC012110
:101240000846FFF751FC274800902448022408383C
:101250000394CDE901078020CDE904704000069099
:1012600080000790202008900002CDE909071E4D5C
:1012700069462846FFF740FA01212846FFF731FA70
:1012800001208DF838008DF839004FF460200B9064
:101290000D978DF830400BA8FFF7ACF90024601CC7
:1012A000C1B204EB440006EBC0000722007AFFF74E
:1012B000C7F9641C022CF2DB0120FFF701FA0120C0
:1012C000FFF77CF90120FFF787F9FFF765F90120A7
:1012D000FFF7E8F912B0BDE8F081000094010020AA
:1012E000008000014C2401400800024070B50E4D02
:1012F000002404EB440115F8311081420ED10A4854
:10130000083830F81400FFF746F804EB440105EB09
:10131000C1014969BDE87040FEF7B8BF641C022CEA
:10132000E7D3002070BD0000940100202DE9F041BA
:1013300004462948294D006830B155F82400284951
:10134000FEF7A4FF45F82400244E00210C364FF090
:101350007E5856F82400234A06F10C07404504D174
:1013600052F8240000281ADC08E010F1814F04D163
:1013700052F82400B0F1004F11D881B91A4850F842
:10138000241057F82400FEF781FF18490968FEF77A
:101390007DFF55F82410FEF721FF45F8240005EBEA
:1013A0008400414601F0B6FC0F480C3850F8241078
:1013B00057F82400FEF76AFF55F82410FEF70EFFD9
:1013C00046F8240006EB8400414601F0A3FC56F8E1
:1013D0002400BDE8F081000018000020180400205F
:1013E00048E17A3F240300208001002060000020B3
:1013F00070B5184CA06A20B10025012809D0A5625B
:1014000070BD0120E06002F001FAA06A401CA062F9
:1014100070BD172002F0C2FCC00609D50F210020C4
:1014200002F0E1FCA562E560BDE8704001F074BF28
:1014300001F006F8616C401A42F210718842E7D957
:10144000E12002F08AFC0F21002002F0CCFCA56212
:10145000E56070BD6C00002070B5002506462C4686
:1014600056F824000146FEF711FF2946FEF7B6FEA6
:10147000641CE4B20546032CF2D3FFF7EBFABDE897
:10148000704001464FF07E50FEF732BF2DE9F0412B
:101490001D4EDFF870801A4D7168346801EB41020F
:1014A00008EB820252F8241038B1184D491C42F85A
:1014B00024104CB95068401C05E0491E42F8241025
:1014C00014B95068401E5060B768294657F8240088
:1014D000FEF7DCFE47F82400346824B92946786812
:1014E000FEF7D4FE7860706800EB400108EB8100E5
:1014F00050F82400002800DA4042BDE8F0810000E6
:101500002EBA683FA003002064010020CDCC8C3FA0
:1015100010B50022C2F107040C44835C14F8014C9E
:10152000A34201D0002010BD521C072AF2DB01208B
:1015300010BD000070B5124D124E002455F8241055
:1015400056F82400FEF75AFF13D10F4850F8241024
:101550000C480C3050F82400FEF750FF09D10B481E
:1015600050F824100748183050F82400FEF746FFC2
:1015700001D000F0D7FB641C032CDFDB70BD000042
:1015800040010020580300204C0100205801002099
:101590002DE9F04385B0072002F000FCC0F34200C3
:1015A0000026072801D0022000E03046DFF8EC8159
:1015B0000127A8F15805002849D0686890B17849FA
:1015C000A86851F82020521C41F8202000F038FF74
:1015D000A96C401A6863724968694031C0B3AA694E
:1015E000BAB33FE06E480F21703002F0C2FB6C4886
:1015F00070300168A42901D0A32966D1A32903D1A1
:1016000041F28831C5E90771644C017E2C3C2170A0
:10161000017F617090F82010A17090F82410E170A3
:101620004168009181680191C1680291016903914B
:1016300040690490684602F0E8FB684602F0F8FB57
:10164000A868215C252002F0CEFB7B2068603CE08E
:1016500006E0FFE751F82020521C41F8202004E06A
:10166000A86910B10868401C086000F0E9FE044653
:101670004B480F21703002F07CFB00F08BFB08B36D
:10168000286C401C2864E86908B1FFF7B1FE6E6160
:10169000AE61A868AC642E61EC646865686A60B984
:1016A00032206F6288F8030088F8020088F8010091
:1016B00088F8000000F0C4FE2865E86838B901F039
:1016C0002BFE02E0A86B401CA863E86808B1FFF796
:1016D0008FFE00F0B5FE0446A86C2A6A211A4FF46A
:1016E0007A7909EB8200814209D9686838B1AC6423
:1016F000A86908B9686DA86001F00EFEAF61E968DD
:10170000A86908431AD16969052917D26868A8B180
:10171000A86C201A484511D92A6A491CB0FBF2F07E
:1017200088420BD301F0F8FD1D4A6869103252F867
:101730002010491C42F82010401C6861E86C1949CF
:10174000201A884206D916482F6140380660466044
:101750008660C66000F074FE296D401A1249884206
:1017600018D92878401C00F00301297095F8402012
:1017700008F8012098F8001098F8012098F8030064
:10178000114498F8022010440844C5E90F0600F0FF
:1017900057FE286505B0BDE8F0830000C4000020B6
:1017A0006C02002040420F0090D0030070B5054D40
:1017B0000024204600F042FD641C0544FF2CF8DBA9
:1017C000284670BD7856341210B50020FFF77AFA1B
:1017D0000120FFF77FFA0120FFF7C8F90028FAD0AF
:1017E0000020FFF7B9F94FF420110020FFF780FA2D
:1017F0000120FFF78DFA1920FFF7B8F90028FAD079
:101800000220FFF7A9F908484168C1F381010229C4
:10181000FAD10020FFF75EF90020FFF771F9BDE86B
:1018200010400020FFF782B9001002402DE9F04F70
:10183000FE4C85B0607818B14FF0804AFC4802E059
:10184000FC484FF07E5A8346FB48CDE9030AFB4E25
:101850000020FB49374651F8201046F82010401C64
:101860000328F6DB00F01EFCA0462078F54D00248E
:1018700020B9287810B102F06BF92C70E87BF24D9A
:1018800000B12C6198F80F00E8B3F048F049806887
:101890000968FEF7FBFC2969FEF7A0FCDFF8B493AA
:1018A000286103E0EC49FEF799FC28614845F9D826
:1018B000DFF8A893484504DDE749FEF7E1FC28611D
:1018C000F8E730680090286900F0BAFB7168FEF70D
:1018D000DDFC8146286900F0A9FB3168FEF7D6FCE3
:1018E0004946FEF7CDFC3060286900F0A9FB00995D
:1018F000FEF7CCFC8146286900F098FB7168FEF782
:10190000C5FC494600E003E0FEF768FC706000E0BB
:101910002C6100F013FD4FF0010970B303280BD0C8
:10192000CF49022816D0012819D004281CD0072836
:1019300026D0082824D025E000F0ACFDA86810B916
:10194000FFF71CFCAC6001F0E3FE00F079FDC54937
:10195000086029E0C1F8009088F8049012E0C1F80E
:10196000009088F804400DE0C1F8009098F8051048
:1019700021B1002188F8051004E015E00121F9E704
:10198000C5F808900021052806D0062807D00728AA
:1019900079D008287AD005E001F0A2FC01E001F03E
:1019A0008FFC0146B0480160B048006870B1B04992
:1019B000002051F8202047F82020401C0328F8DBA5
:1019C0009D484FF07E5ADFF868B2039001F072FD37
:1019D000A84998F80400A84F0968084302D0A7480E
:1019E0000068E0B3B046A6493068FEF74FFCBB463E
:1019F0003946FEF74BFC5146FEF748FC934E3168E2
:101A0000FEF73EFC9F4F9E493860D8F80400FEF771
:101A10003DFC5946FEF73AFC5146FEF737FC71682B
:101A2000FEF72EFC78609649D8F80800FEF72EFCE9
:101A30005946FEF72BFC0499FEF728FCB168FEF727
:101A40001FFCB860904804604460002001F086FCF0
:101A5000012001F083FC022001F080FC02E018E08C
:101A600011E013E04FF07E56754800963246C0688C
:101A7000864B002101F0DCFB4FF0004B0746584538
:101A800064D9002765E001F0DBF88AE700F0E8F9A7
:101A900087E7584602F086F87949B068FEF7F6FB0A
:101AA000BB463946FEF7F2FB0499FEF7EFFB6FF0F9
:101AB0000A01FEF75BFC764E074639467068FEF772
:101AC000E5FB00903068394680F00040FEF7DEFB11
:101AD00001903946B068FEF7D9FB6E4FDFF8B88148
:101AE000029041463868FEF7D1FBDFF8B0A15146BD
:101AF000FEF7CCFB6A4E414630607868FEF7C6FBC5
:101B00005146FEF7C3FB7060DFF840815D4F002651
:101B1000EA463046FFF70AFC0399FEF7B7FB594641
:101B2000FEF7B4FB5AF82610FEF758FB58F82610BB
:101B3000FEF7A6FB47F82600761C022EE9DBD8F854
:101B400008100298FEF79CFBB8607EE7B74200DD04
:101B500037465448006810B9534887422ADAC5F816
:101B60000090686838B100F06BFC6968401A4F4912
:101B7000884200D96C60EC600024E0B2002101F0E2
:101B80003FFD641C032CF8DD494C2F482246002100
:101B9000143001F085F92C4822460021183001F05C
:101BA0007FF900242146002001F060FB641C032C17
:101BB000F8DDB2E000F044FCC5E900402B48AA463D
:101BC000A146006808B12A48C7683A4C3846D4F89C
:101BD00000804146FEF754FB049065682946FEF7F5
:101BE0004FFBA4682146FEF7F9FA039041463846B8
:101BF000FEF7F4FA07462946FEF742FB2146FEF7B8
:101C00003FFB009029460498FEF7E8FA2146FEF7CC
:101C100037FB019038462946FEF7E0FA2146FEF7E9
:101C2000DDFA00246D46029046E000003C020020F0
:101C300000005C4200000C420000B443EC010020B4
:101C40002C0200205C020020180000202403002049
:101C500060000020DB0F49C0DB0FC940DB0F4940AB
:101C60003400002068000020380000201801002007
:101C7000480300201401002035FA8E3C100100209A
:101C800000003443DC03002018040020CDCCCCBD80
:101C9000EC0000200C040020E12E6542CDCC8C3FEE
:101CA000300400207C0000206F12833A40420F0075
:101CB000EC51383FD003002055F82400214601F0B4
:101CC000D5FA45F82400641C042CADDB0024E0B2F6
:101CD00055F8241001F094FC641C042CF7DB5746E3
:101CE0000024C846CAF80C9055F82400584502D97B
:101CF00045F8248003E0B04201DD45F8246055F842
:101D00002410F868FEF76AFA641CF860042CEBDB18
:101D10006FF00101FEF72AFBF86005B0BDE8F04F57
:101D200000F0BCBE2DE9F04FDFF850C0124D144E4C
:101D30000CF10C08134FDFF850A0DFF850B0DFF8BB
:101D400050E0002008F10C0955F820304CF8203004
:101D500056F8202048F8202057F8201049F8201085
:101D60004AF820304BF820204EF82010401C032861
:101D7000EADBBDE8F08F000040010020580300209E
:101D80004C010020580100207C0300208803002023
:101D9000940300202DE9F0412F4C2068A52859D14B
:101DA0000021084654F82020401C11440E28F9DB7D
:101DB000C8B2A16B88424DD12748103001F0BAFA61
:101DC000254DB03D286005F1C80001F0B3FA686008
:101DD00005F1D80001F0AEFAA86094F82010606A0E
:101DE00001F0030100EB0120FEF7CCFA1B49FEF7DE
:101DF0004DFAE860207B1035C0F3C010A872A068CF
:101E0000C0F30011E971C0F340112972C0F3C001A1
:101E100029706168FA291BD000216970C0F3400164
:101E2000A97000F00100E87000200B4B0127803BF7
:101E30000646A3F110041E54225C295C8A4200D09D
:101E40001F542154401C0E28F5DB0120BDE8F08111
:101E50000121E2E70020F9E7DC020020F7FF7F3AEA
:101E60000020FFF713BB08B500010090411E009150
:101E700001D30846FAE708BD2DE9F04104464FF0CA
:101E800019404E49002500EB440088424AD84C498D
:101E90002046FEF7FBF9FEF7FCFA8046FEF780FAD3
:101EA000064648494046FEF7F1F90746464940468E
:101EB000FEF7ECF92146FEF7E6F93946FEF7E0F9C0
:101EC00004464249FEF7E2F94149FEF787F9214607
:101ED000FEF7DCF96FF04141FEF780F92146FEF78D
:101EE000D5F93C49FEF77AF92146FEF7CFF90146CC
:101EF000394806F00304784450F82400FEF7C6F988
:101F00003649794451F82410FEF768F93449794488
:101F100051F82410FEF762F9B11085BBBDE8F0411D
:101F2000FEF724BA4FF0FF4131EA040018D04FF019
:101F3000CE41B1EB440F84BF4FF07E50BDE8F0813D
:101F40002849B1EB440F28BF0125A0D20220FFF79A
:101F500009F914F0004F0ED0BDE8F041FFF7EEB8DC
:101F6000204614F5000F04BF0020BDE8F081BDE855
:101F7000F041FFF7DBB8BDE8F041FFF7DAB8FEF754
:101F8000F5F904000BD0B4F1FF4F0FD0FFF7BBF809
:101F9000042808BFFFF7D2F82046BDE8F0810220F0
:101FA000FFF7E0F8BDE8F041FFF7C8B80220FFF7FF
:101FB000D9F8BDE8F041FFF7BCB800000000501EA2
:101FC0003BAAB840F4FD05370070313E12BB2A3DF4
:101FD00012BB2A3EFFFF7F3FCE1F0000B21F000052
:101FE000961F00000000A08506460024E0B20021F4
:101FF00001F006FB641C032CF8DD0B4DAF00002440
:102000000CE0FF2000F05EFE2846FFF72CFFFF20CB
:1020100000F030FE2846FFF726FF641CB442F0DBD8
:102020003846FFF720FFEAE7400D030010B50349EB
:10203000FEF7D4F8BDE8104000F002B8DB0FC93F4E
:1020400070B50446124E134D03E03146FEF7C6F854
:102050000446AC42F9D8104DAC4204DD3146FEF7DF
:102060000FF90446F8E70D490D4DB4F1004F05D9BD
:10207000FEF70CF92946FEF7B1F804E0FEF706F981
:102080002946FEF700F92146BDE87040FEF7FEB88C
:10209000DB0FC940DB0F49C0DB0F49407B81CF3EDE
:1020A00083F9A23F2DE9F05F484C206900284ED00B
:1020B00047480627006800B1676100F0C1F9E16890
:1020C000401A4449884200D967616069DFF8088195
:1020D000DFF808A1DFF808B1424D00264FF00109F2
:1020E00007286BD2DFE800F03304203546556C003A
:1020F000C4F80090C4F808902E603B486E60C5E9B3
:102100000260D8F80800B0F1004F0BD9D4E90610EE
:1021100010B145F821A001E045F821B03348E8604E
:1021200004206061022011E000F08AF9E168411AA0
:102130002F4881420BD9D4E9061010B145F821A0EF
:1021400001E045F821B02848E86003206061BDE85F
:10215000F09F00F075F9E168401A2649884200D9DD
:102160006761D8F80800B0F1004FF0D91F48E86067
:102170000420EBE72049D8F808008842E7DD00F0AA
:102180005FF920621D48E86005206061C4E90069CC
:10219000DDE71B4801682960416869608068A860C4
:1021A000A06945F820601748A16940F8216000F057
:1021B00047F9216A401A14498842C8D96761C6E7BD
:1021C0002661666126606660A660C0E71001002097
:1021D0001800002060E31600EC0000205555054172
:1021E000555505C1480300206666663F3333333FCB
:1021F000400D030060AE0A0000004843CDCC4C3FC8
:102200002C02002018040020A086010010B5FEF763
:10221000EBFA3420FEF78EFA0748FEF791FA0446EF
:102220004FF47A60FEF7F0FAFEF7BCFA022C01D008
:10223000002010BD012010BD007C0008014951F8AC
:1022400020007047007C000870B50D460446FEF77C
:10225000CBFA3420FEF76EFA0948294600EB8400D9
:10226000FEF7A8FA04464FF47A60FEF7CDFAFEF7BF
:1022700099FA022C01D0002070BD012070BD000031
:10228000007C000830B52B4C2178814250D00721CA
:10229000621812F8012C6254491E0129F8DA2070E4
:1022A00025492448FFF734F97F2510B165700120D6
:1022B00030BD21491F48C91DFFF72AF910B16570CB
:1022C000022030BD1C491B480E31FFF721F910B127
:1022D0006570032030BD184916481531FFF718F90D
:1022E00010B16570042030BD134912481C31FFF74E
:1022F0000FF910B16570052030BD0F490D4823312D
:10230000FFF706F910B16570062030BD0A4909488B
:102310002A31FFF7FDF810B16570072030BD06497E
:1023200004483131FFF7F4F810B16570082030BD72
:10233000002030BD08010020563E000870B5374827
:10234000374C0068C0B3374B37481A6822F0004159
:1023500081420BDA9D6825F00045854206DA5D680A
:1023600025F00045854201DA002030E02F4DAA42D9
:1023700002D89E68AE4206D95E6826F000468642C4
:1023800001DA012023E02A4EB24202DC9A68B2420E
:1023900006DD5A6822F00042824201DA022016E08D
:1023A0005A68AA4209D9814207DA9D6825F000459A
:1023B000854202DA03200AE02BE0B24208DD8142C6
:1023C00006DA996821F00041814201DA0420206098
:1023D00000F036F8D4E90012914200D0E060E268E3
:1023E000801A144A90420ED921B9134A904201D959
:1023F0000C2005E0114A904204D97F2903D0FF2028
:10240000A06000E0A1606160A068BDE87040FFF7D7
:1024100039BF7F20A0606060002070BD18000020E0
:10242000F80000202C020020CDCC4C3E333333BFCB
:102430003333333FA086010040420F0020A1070044
:1024400001F056BC1CB501214FF48C00FEF74CFB8B
:10245000012403208DF804408DF8050000218DF83B
:1024600006108DF80710009069460848FEF7D7F966
:10247000694607480094FEF7D2F9042000906946A7
:102480004FF09040FEF7CBF91CBD0000001400484F
:10249000000400482DE9F04F8DB0FFF7D1FF05464D
:1024A0000C905B4BAB46A94600200DF1180809A91A
:1024B00053F8204041F82040401C9A460328F6DBA0
:1024C00089E0B5EB0907A94600D101270622694634
:1024D000432000F059F9DDE9001000EB012000B2C3
:1024E000FDF750FF0790DDE9021000EB012000B27C
:1024F000FDF748FF0690DDE9041000EB012000B273
:10250000FDF740FF08904348B4FBF0F100FB114099
:102510004149884204D9052000F0D4FB0A2003E099
:102520000A2000F0CFFB052000F0A4FB002409AE38
:1025300058F8240056F82410FDF76AFF06D256F822
:1025400024003649FDF74AFE46F8240056F82410C8
:1025500058F82400FDF752FF06D256F824002F4900
:10256000FDF78EFE46F8240006EB84002C4900F0AF
:10257000D1FB56F824002B4920F00040FDF72EFE39
:10258000014658F82400464620F00040FDF740FF81
:1025900003D2FFF755FF83460CE03846FDF7FBFEFC
:1025A000214900F093FC024656F824100AEB8400FF
:1025B00000F076FC641C032CB9DB4FF47A74FFF74F
:1025C0003FFF401BA04203D20A20FFF74CFCF6E776
:1025D000FFF736FF05461548A5EB0B04844205D2EC
:1025E0000C981349281A8842FFF46BAF1149A5EBE8
:1025F0000B00884209D900200246514641F82020AC
:10260000401C0328FADB00F097FB0DB0BDE8F08F0B
:102610003C030020400D0300A0860100CDCCCC3D42
:10262000000048440000C8420024F44880841E0092
:10263000C0E1E40038CEE4002DE9F04F012185B07F
:102640004805FEF767FA4FF0000B8DF804B04FF025
:10265000030A8DF805A00125484E4FF0C0098DF8FA
:102660000650CDF800908DF8075069463046FEF7C9
:10267000D6F8002480213046FEF71CF900B9012469
:102680000A20FFF7F0FB80274FF0020800978DF833
:10269000078069463046FEF7C2F880213046FEF7D3
:1026A00009F9012800D064B300978DF807506946F6
:1026B0003046FEF7B4F8402000908DF804508DF8B5
:1026C000075069463046FEF7AAF80A20FFF7CBFB11
:1026D0000024002240213046FEF7F1F81920FFF7D0
:1026E000C2FB012240213046FEF7E9F80520FFF742
:1026F000BAFB80213046FEF7DDF810B9641C122CBD
:10270000E7DB8DF804808DF805A08DF80650CDF834
:1027100000908DF8075069463046FEF780F8012298
:1027200006213046FEF7B6F8012207213046FEF7B3
:10273000B1F8ADF808B04BF6FF70ADF80A001048DC
:1027400003904FF48040ADF8100024200D4CADF8FC
:10275000120002A92046FEF7E5F801212046FEF707
:10276000C0F800212046FEF7B2F84FF2FF71204674
:10277000FEF73AF905B0BDE8F08F0000000400480C
:10278000801A0600005400402DE9F74F82B0002463
:10279000914606462546009400F0FEF8DFF81081C9
:1027A000F1B24046FEF72EF941F69C77414EDFF834
:1027B00008A101E0401C306051464046FEF72EF96A
:1027C00010B93068B842F5D301214046FEF71CF934
:1027D000DFF8E8A001E0401C306051464046FEF7BB
:1027E0001DF910B93068B842F5D3D1214046FEF743
:1027F00009F901214046FEF76AF84FF4006AB34632
:1028000002E0401CCBF800002C494646491C4046DB
:10281000FEF704F928B9DBF8000041F69C729042FB
:10282000EFD35746A9F10108B2464C451DDA002600
:1028300000E0761C214950463F31FEF7EFF888B1A1
:10284000BE4200DB012556465046FEF7D8F80399F4
:1028500041F82400641C4445E7D100213046FEF7CE
:1028600036F8E2E7BE42E4DBECE70121544650468D
:10287000FEF7E3F8204641F69C735A4601E0491CF6
:1028800011600188890502D511689942F7D3116852
:10289000994200D22DB15168491CCBF80410012196
:1028A00000910021FEF713F8009805B0BDE8F08F05
:1028B00000540040CC010020840007000100030008
:1028C0002DE9F041044600F067F82F4EE1B23046A2
:1028D000FEF798F841F69C752C4C2D4F01E0401CFA
:1028E000206039463046FEF799F810B92068A842B2
:1028F000F5D301213046FEF787F8206802E0206812
:10290000401C2060A84201D2012100E00021304695
:10291000FEF784F80028F2D0D1213046FEF772F895
:102920001C4F01E0401C206039463046FEF776F827
:1029300010B92068A842F5D3164F3E3739463046C5
:10294000FEF76CF818B105E0401C2060F6E720683F
:10295000A842F9D33046FEF752F807460121304627
:10296000FEF76BF801E0401C20603088800502D53E
:102970002068A842F7D32068A84202D36068401CB0
:1029800060603846BDE8F08100540040CC01002072
:1029900084000700020003002DE9F0411E4C0020D6
:1029A0001E4E41F69C754FF40037206001E0401C3C
:1029B000206039463046FDF79EFF10B12068A842DE
:1029C000F5D301213046FEF71FF8206802E02068A9
:1029D000401C2060A84201D2012100E000213046C5
:1029E000FEF71CF80028F2D00D493046FDF783FFB2
:1029F000D0213046FEF706F80A4F01E0401C206067
:102A000039463046FEF70AF8002802D12068A8426D
:102A1000F4D3BDE8F0810000CC0100200054004058
:102A200001000010820007002DE9F0410D46044628
:102A3000FFF7B2FF164EE1B23046FDF7E3FFE9B211
:102A40003046FDF7DFFF41F69C75124C124F01E056
:102A5000401C206039463046FDF7E0FF10B9206881
:102A6000A842F5D301213046FDF7E7FF01E0491CFC
:102A700021603088800502D52168A942F7D32068FB
:102A8000A84202D36068401C6060BDE8F08100008D
:102A900000540040CC010020840007002DE9FE43D3
:102AA0004D49684601F03AF9FFF7CAFC4A4E044620
:102AB000083E7068201AFDF76EFC4FF07E5174607E
:102AC000884202DB4549884200DD08464449FDF75B
:102AD000DDFB444F444D8046002457F8241055F840
:102AE0002400FDF7CDFB45F82400641C032CF4DB27
:102AF0003E4C41462068FDF7C9FB07460099FDF7AB
:102B0000C5FB0299FDF7BFFB014602903846FDF771
:102B1000BDFB0099FDF762FB009041466068FDF740
:102B2000B5FB07460299FDF7B1FB0199FDF756FB8E
:102B3000014601903846FDF7A9FB0299FDF7A3FB7A
:102B400002904146A068FDF7A1FB04460199FDF7FC
:102B50009DFB0099FDF797FB014600902046FDF78D
:102B600095FB0199FDF73AFB01901F48FEF774FCB5
:102B70001F4942181F498A422CD24FF08A4201460F
:102B800000241046FDF7B4FB0746384655F82410DC
:102B9000FDF77CFB45F82400641C032CF5DB4FF0AB
:102BA0008041404600F092F9804600246F4655F877
:102BB000241007EB8400424600F072F9641C032CD9
:102BC000F5DB3068401C30606946034801F0A6F828
:102BD000BDE8FE830020F6E7EC00002000409C46A4
:102BE000BD37863530030020180300202403002061
:102BF000CCCC4CBB323373002DE9F04700250D4E91
:102C00000D4FDFF838804FF47A7900F08FFE002402
:102C100007EB840056F82410424600F041F9641C8A
:102C2000032CF5DB4846FFF71EF96D1C642DECDB29
:102C3000BDE8F08718030020EC0000209A99593F66
:102C40000120FEF723BC70B50D460446FFF7F8FBE4
:102C5000B0FBF4F104FB11006C43B0EB141F4FF018
:102C60000F0003D9BDE8704000F02CB8BDE87040FB
:102C7000AFF3008070B50446000705D5002204219B
:102C80004FF09040FDF71BFE0C4DE00704D00022F2
:102C900001212846FDF713FEA00704D500220221DA
:102CA0002846FDF70CFE600706D5BDE870400022FF
:102CB00001210348FDF703BE70BD00000014004869
:102CC0000004004870B50446000705D50122042120
:102CD0004FF09040FDF7F3FD0C4DE00704D00122CA
:102CE00011462846FDF7EBFDA00704D5012202217D
:102CF0002846FDF7E4FD600706D5BDE870400122D7
:102D000011460348FDF7DBBD70BD0000001400480C
:102D10000004004870B504460E4681F00045006886
:102D2000FDF776FB00D2266028462168FDF770FB90
:102D300000D2256070BD00002DE9F05F00F07EF844
:102D40000020FFF77BFA364EAE2802D0002030601C
:102D50005DE00125334FDFF8D08000242846FFF7DF
:102D60006DFA47F824006D1C2846FFF767FA48F80B
:102D70002400641C6D1C032CF0DB2846FFF75EFA70
:102D80006D1C30602846FFF759FA6D1C70602846AC
:102D9000FFF754FAB060254E0024DFF89490DFF876
:102DA00094A0DFF894B006F10C0706F118086D1C2A
:102DB0002846FFF743FA46F824006D1C2846FFF723
:102DC0003DFA47F824006D1C2846FFF737FA48F80B
:102DD00024006D1C2846FFF731FA49F824006D1CC9
:102DE0002846FFF72BFA4AF824006D1C2846FFF707
:102DF00025FA4BF82400641C6D1C032CD8DBFEF76D
:102E0000D5FC0446FF20FFF719FA844203D0BDE841
:102E1000F05FFEF787BFBDE8F05FFEF78BBB0000F9
:102E2000340100203C030020300300205803002020
:102E30007C030020880300209403002070B500204C
:102E4000FFF7FCF9AC2824D10124124E00252046BE
:102E5000FFF7F4F946F82500641C6D1C032DF6DB22
:102E60000D4E00252046FFF7E9F946F82500641CC1
:102E70006D1C032DF6DB2046FFF7E0F9074D641CBF
:102E800028602046FFF7DAF96860601CFFF7D6F982
:102E9000A86070BD3C0300203003002034010020F6
:102EA00070B50C460546164611464FF07E50FDF7AC
:102EB000E7F92146FDF7EAF9044631462868FDF7AF
:102EC000E5F92146FDF78AF9286070BD70B50D4619
:102ED000002801DC002070BD4FF07E54002D0EDD77
:102EE00001462046FDF704FA2946FDF7CFF90146D1
:102EF0000448FDF7FDF9FEF7BFFFA042EBDD2046D9
:102F000070BD0000000080BF70B50546FDF7C1FA36
:102F1000044601462846FDF7B3F915F0004F4FF07F
:102F20007F450ED0B0F13F4F28BFB5EB400F0ED21A
:102F3000B0F17C5F1DDDB5EB400F1AD313E0044602
:102F400017E0B0F13F4F08D9B5EB400F05D34FF074
:102F50007E512046FDF794F9F1E7B0F17C5F08DB84
:102F6000B5EB400F05D34FF07E512046FDF736F903
:102F7000E5E7B4F19E4F02DDB5EB440F05D2B4F1A5
:102F80004F4F05D9B5EB440F02D30120FEF7EAF805
:102F90002046BDE87040FDF79ABA000008B5FEF77C
:102FA00013FCFFF74FFAFFF747FB00F04DFD00F071
:102FB00091FA0024E0B2002100F022FB641C032CF3
:102FC000F8DD00F083FEFDF7EBFD082801D00520B9
:102FD0005AE000F083FC00F071FCE8B1FEF70AF95A
:102FE00000F044FB814C0026354666610520FEF763
:102FF0007DF96169FDF7F2F8761C6061402EF5DB22
:10300000C1B2E1616FF00501FDF7B0F97849606187
:10301000884203DA022037E0042035E0FFF78CFE17
:10302000FFF738FA00F020FBFFF7E6FDDFF8C48178
:10303000D8F8000008B1072026E0FFF701FA606326
:10304000FEF7A6FADFF8B0A16C4FDFF8B4B1FFF7D6
:10305000F7F92063616B0646401AFDF79CF9E062C0
:10306000002802DC4FF07E50E0626649FDF70EF961
:103070006549E062884201DD032005E06663D8F817
:103080000000142802D90820FEF7AEFF00F04EFC25
:10309000FEF7CCFB0520FEF729F9616AFDF728F958
:1030A00020610620FEF722F901462062574E4F4864
:1030B00032462430FFF7F4FE554832460168684630
:1030C000FFF7EEFE4948534A28306169FFF7E8FEF2
:1030D0004648324614302169FFF7E2FE6FF00101E5
:1030E000A06AFDF743F906464B496069FDF7CEF843
:1030F0003146FDF7C5F88146E06800B147484849C8
:10310000FDF76CF8064651460098FDF7BFF84946B2
:10311000FDF764F83146FDF771F902D20120E06055
:1031200000E0E56051460098FDF7B0F84946FDF72C
:1031300055F8A0613B48006898B33B4800680028F8
:10314000E06803D018B90F21384627E008B10821FC
:10315000FAE7206878B1A06810B9FFF771F9A060AC
:10316000FFF76EF9A168401AB84201D92560A56041
:103170000821584612E06068A0B1A06810B9FFF7B6
:103180005FF9A060FFF75CF9A168411A38468142F7
:1031900003D96168491EC4E901150121FFF753FDF8
:1031A0000BE00FE02148807B00284FF0FF0002D0A9
:1031B000FFF788FD01E0FFF75DFDFEF7E9F940F25A
:1031C000D2360AE0E16843F6095041430BEB411067
:1031D0000C21E3E70A20FEF746FEFFF731F9216BE9
:1031E000401AB042BFF433AFF4E7000034000020CF
:1031F00033335340D00100203333333F20A1070045
:10320000A0860100BD3786350AD7A33C492E7F3FF3
:103210002400002028EA7F3F0000A03FCDCCCC3D19
:1032200000006040700000207C0000203C02002074
:103230002DE9F041074698460E461046069DFDF7DB
:103240001FF8044641462846FDF71AF80546314660
:103250003846FDF715F82946FDF718F82146FDF721
:1032600047F84146BDE8F041FCF7B8BF2DE9F05FF3
:10327000124E0C4683466FF0010856F82400414672
:10328000FDF774F8A6F11007824657F824504FF066
:10329000FF312846FDF76AF8814641465846FDF75A
:1032A00065F84946FCF79AFF5146FCF797FF46F848
:1032B000245047F824B0BDE8F09F00000C02002025
:1032C000064902220868022801D018B103E0002054
:1032D000086000E00A600868401C70476401002034
:1032E0000B49486820B1012806D0022809D10AE01C
:1032F00008488860012003E006480C3088600220FE
:103300004860401C704703480C3888600020F7E78D
:1033100064010020880300200549087A401C00F061
:10332000030088602C31095C252000F05CBD0000A2
:103330006C00002010B541680078074A00F00300D7
:1033400002EB00200844FDF71DF8BDE810406FF0C7
:103350000801FDF70BB8000000FEFFFF2DE9F84F54
:1033600004464D48DFF83891DFF830810068A9F154
:103370000C0606F118074FF0FF3B30B156F8240059
:103380004849FCF783FF46F82400002558F824102C
:1033900059F82400FDF732F804D157F8240000282A
:1033A00000DD012558F82400C24680F0004059F89D
:1033B0002410FDF723F804D157F82400B0F1004F92
:1033C00020D8FDB9DFF8D88057F8245008F1180844
:1033D000284658F82410FCF701FF5946FCF7C6FFB1
:1033E000A8F1600151F82410FCF750FF2E4909683C
:1033F000FCF74CFF56F82410FCF7F0FE46F82400CA
:1034000048F8245025480C3050F8241006EB84006E
:10341000FFF780FC2248543850F8241057F8240055
:10342000FCF734FF4D4656F82410FCF7D7FE1C4E2F
:103430008046243606EBC4095946D9F80400FCF747
:1034400095FF00901948594650F824703846FCF70B
:103450008DFF0099FCF714FFA6F1600151F82410CC
:10346000FCF714FF1249C968FCF710FF4146FCF74E
:103470000AFF45F8240056F83410C9F8041046F83D
:1034800034705AF8241005EB8400FFF743FC55F81C
:103490002400BDE8F88F000018000020903E0008CE
:1034A000D003002048E17A3F600000202403002080
:1034B00064010020044810B501680448FCF718FFB7
:1034C0000349C86010BD00006000002017B7513BE1
:1034D0006401002030B585B002208DF8040003217E
:1034E0008DF8051000248DF80640414D00908DF8B0
:1034F000070069462846FDF792F901221146284641
:10350000FDF7C8F94FF4E0604FF090450090694630
:103510002846FDF784F9022208212846FDF7BAF96A
:10352000022209212846FDF7B5F902220A21284680
:10353000FDF7B0F90121C802FDF702FB01210220CD
:10354000FDF7E8FAADF808404020ADF80A0040F277
:10355000FF50284D0390ADF8104002A92846FDF712
:1035600079FC2549602008808C81012048800C82EC
:103570008C60224C2046FDF7C7FC1F492046FDF712
:1035800003FD1D492046FDF745FD1B492846FDF773
:1035900081FD01212846FDF795FC02A92046FDF793
:1035A00059FC01212046FDF78DFC00212046FDF746
:1035B000E5FC00212046FDF723FD00212046FDF714
:1035C00063FD00212846FDF791FD01212046FDF70E
:1035D00091FC01212846FDF78DFC01212046FDF7D5
:1035E0007EFC01212846FDF77AFC05B030BD0000C5
:1035F00000040048000400403C040020002C01406E
:1036000070B50A46154D044629461046FCF73EFEA5
:10361000B0F1004F01D9002002E0A84200DD2846A9
:10362000FFF772FCFCF7AEFE54B1012C0DD0022C5A
:103630000FD0032C03D1FCF7CCFE0949086070BD04
:10364000FCF7C7FE06490839F8E7FCF7C2FE054952
:10365000F4E7FCF7BEFE0249091FEFE700E0BF44B4
:103660003C2C0140400400407047000000B5264853
:1036700085B0012181730022C273017106212348A4
:1036800000F055FB214808210C3000F050FB1F488A
:103690000621801D00F04BFB6420FEF7E4FB1421A3
:1036A0006846FCF780FD684600F0AFFB0021012072
:1036B00000F099FB0121022000F095FB0721062074
:1036C00000F091FB0F21112000F08DFB0021042060
:1036D00000F089FB0321084600F085FBE22000F0A2
:1036E0003CFB0021052000F07EFB18211D2000F08E
:1036F0007AFB0F21002000F076FB044907205C399B
:10370000086305B000BD00003C020020C800002096
:103710002DE9F05F0024FEF779FD002861D1AE218C
:103720002046FEF791FD304E304F012556F824100B
:103730002846FEF789FD6D1C57F824102846FEF731
:1037400083FD641C6D1C032CF0DB294C284621688A
:10375000491C2160FEF778FD6D1C28466168FEF764
:1037600073FD6D1C2846A168FEF76EFD0024214EF6
:10377000214FDFF88880DFF88890DFF888A0DFF835
:1037800088B06D1C56F824102846FEF75DFD6D1CB0
:1037900057F824102846FEF757FD6D1C58F82410E2
:1037A0002846FEF751FD6D1C59F824102846FEF7F7
:1037B0004BFD6D1C5AF824102846FEF745FD6D1C84
:1037C0005BF824102846FEF73FFD641C6D1C032C9B
:1037D000D8DBFDF7EBFFBDE8F05F0146FF20FEF709
:1037E00033BDBDE8F09F00003C0300203003002003
:1037F00034010020400100204C010020580100202D
:103800007C030020880300209403002070B590B052
:1038100000206C4644F82000401C0F28FADB85206D
:1038200000902148214D06682148019629460068EC
:10383000FCF72CFDFCF7B4FDC0F30721C0B2CDE9C5
:1038400003101C4829460068FCF720FDFCF7A8FD82
:10385000C0F30721C0B2184DCDE90510E86B00EBAD
:10386000D0704010FF2800DDFF2007901EB10398A4
:1038700040F0080003900021084654F82020401C26
:1038800011440E28F9DBE1200E9100F066FA0221C6
:10389000002000F0A8FA0F21684600F08FFAFEF72A
:1038A000CFFD686410B070BD400000200000C84229
:1038B000480000204C0000206C00002010B575204E
:1038C000FEF7FEFF682807D0782805D07D2803D0B2
:1038D000722801D0002010BD012010BD10B580213C
:1038E0006B20FFF7A1F849F64040FEF7BCFA012132
:1038F0006B20FFF799F87520FEF7E2FF682801D0EA
:10390000012400E0002418211C20FFF78DF81CB1D1
:1039100005211D20FFF788F818211B20FFF784F8E8
:103920000321BDE810401A20FFF77EB82DE9F041D1
:1039300094B00E2269463B20FEF726FFDDE9001019
:1039400000EB012000B24042FCF71CFD0646DDE919
:10395000021000EB012000B2314C4042FCF712FD96
:103960000546DDE9041000EB012000B2FCF70AFD7A
:10397000A06085F00040606086F000402060DDE9D6
:10398000081000EB012000B2FCF7FCFC1190DDE90F
:103990000A1000EB012000B2FCF7F4FC1090DDE906
:1039A0000C1000EB012000B2FCF7ECFC2434129068
:1039B00021681098FCF764FC109061681198FCF77E
:1039C0005FFC1190A1681298FCF75AFC12901198B4
:1039D000134E80F0004011901098002480F00040B9
:1039E000109011980F4F80F0004011901298DFF85E
:1039F000388080F0004010AD0C36129055F824004D
:103A00003946FCF743FC4146FCF740FC45F82400EE
:103A100046F82400641C032CF0DB14B0BDE8F081F0
:103A20001803002000007A3D35FA8E3C0149202021
:103A30000860704718040048002220210148FCF764
:103A40003EBF0000000400481CB538200090032051
:103A50008DF8050001208DF8040000248DF8064043
:103A60008DF8070069460948FCF7D9FE4FF400407D
:103A700000908DF8044069464FF09040FCF7CFFE6F
:103A800002492020183108601CBD000000040048D5
:103A900030B407210A4B0B4C4FF0080C102240FAAF
:103AA00001F515F0010F02D0C3F800C001E0A4F841
:103AB00000C01A602280491EF1D530BC704700005A
:103AC0001804004828040048F0B4024600200721EA
:103AD0000E4C0F4E4FF0080C4FF090451023400055
:103AE00012F0800F02D0C4F800C001E0A6F800C0B8
:103AF000520023602F8A17F4004F01D040F00100DC
:103B00003380491EEBD5F0BC704700001804004814
:103B1000280400480C4A30B40020082111800721F5
:103B2000DFF828C04FF0904410234000CCF800305C
:103B3000258A15F4004F01D040F001001380491E82
:103B4000F3D530BC70470000280400481804004832
:103B500070B5114C1149124E206909684FF00105EA
:103B6000084304D12561FEF76BFC6561E06000202D
:103B7000A061E061706820F00041306820F00040F2
:103B8000FCF73CFC04D2A561706802E0E56170BD01
:103B900030680028FADC70BD1001002018000020F9
:103BA0002C0200202DE9FE4F424C06466168FCF7CE
:103BB0006DFB414D2946FCF769FB074630462168FD
:103BC000FCF764FB2946FCF761FB0546FEF738FA73
:103BD00004463846FEF734FA06463846FEF726FA1B
:103BE00007462846FEF722FA3946FCF74FFB054602
:103BF00031463046FCF74AFB074621462046FCF793
:103C000045FB3946FCF7EAFA07462C484FF07E5947
:103C100087420EDD29460846FCF738FB4946FCF78B
:103C200032FB01463846FCF763FBFCF713FF0746FF
:103C300000E0234F20463946FCF728FB82463046F9
:103C40003946FCF723FBDFF87C80064600246F46EC
:103C50006FF00A0B58F824005946FCF787FB47F829
:103C60002400641C032CF5DB29460198FCF70EFBAD
:103C7000044631460298FCF709FB2146FCF700FB9D
:103C8000114C294660600098FCF700FB0546514640
:103C90000298FCF7FBFA2946FCF7F2FA20604D4641
:103CA00049462046FFF736F82946201DFFF732F82F
:103CB000BDE8FE8FEC01002035FA8E3C6F12833A8E
:103CC000F4FD343FEC0000200C0400204FF0E02015
:103CD00005494161054AF02182F8141D00218161E6
:103CE00003210161704700007F8D5B000FE000E061
:103CF0004FF0E02043698069074A1168884201D289
:103D0000091A01E01B1A194410600620B1FBF0F0FB
:103D10005168084450607047C4010020002251F8E7
:103D2000223040F82230521C032AF8DB704770B56D
:103D30000D460646FFF780FE002404E0305DFFF7E5
:103D4000A7FE641CE4B2AC42F8D3FFF76FFEBDE8F7
:103D500070404FF47A70FEF786B810B50446FFF74E
:103D60006BFE2046FFF7B0FE0446FFF75FFE2046DD
:103D700010BD70B50D4606460024FFF75DFE6120BC
:103D8000FFF786FE04E0FFF7C5FE46F82400641C3A
:103D9000AC42F8DBBDE87040FFF748BE10B500F05C
:103DA0001F04FFF749FE2046FFF78EFE0020FFF7B5
:103DB0008BFE0446FFF73AFE204610BD70B50D4657
:103DC00006460024FFF738FEA020FFF77DFE04E042
:103DD00056F82400FFF778FE641CAC42F8DBBDE81F
:103DE0007040FFF723BE70B500F03F000D4640F075
:103DF0002004FFF721FE2046FFF74AFE2846FFF782
:103E000047FEBDE87040FFF711BE70B505460024BF
:103E1000FFF712FE2A20FFF73BFE55F82400FFF7BC
:103E200037FE641C052CF8DBBDE87040FFF7FEBDD3
:103E300070B505460024FFF7FFFD3020FFF728FE90
:103E400055F82400FFF724FE641C052CF8DBBDE8C0
:103E50007040FFF7EBBD0C0100010003000C0200F5
:103E6000020003000C0300030003000C0400040024
:103E700004000C0400030004000C04000300030011
:103E80000C0400030002000C040003000100000009
:103E9000CDCC4C3FCDCC4C3FCDCCCC3ECDCC4C3F13
:103EA000CDCC4C3FCDCCCC3E0000803F0030983F85
:103EB0000000B53F0040D73F00000000320A7E39C5
:103EC0007F661E395B991F390000803FF037983FAD
:103ED000F304B53FFD44D73FFC3E0008000000203E
:103EE000EC01000040050008843F0008EC010020C0
:103EF000640600005611000879D2FFFF41850102D7
:103F00000304290C2E06070809010C01276D6666BB
:103F1000864004612B803F0489100126033AB80BC8
:103F2000100C3F4C846F9C20390BDFC42700091B09
:103F30003EC99AA061BBAB9C0248452D7B142E3E26
:103F40000449F45AC0041BA040142A3F04299B8151
:103F5000137C0342202D5839B43C04412D0AD72349
:103F60003C04C13A0526114348054008702A45AE75
:103F700047714033060212084348114C40D844743C
:043F8000012A000012
:040000050800015B93
:00000001FF
